:020000040800F2
:10000000A8560024E1020008697300081170000876
:1000100061730008A1070008F98F000800000000C4
:10002000000000000000000000000000C97500088A
:10003000590C00080000000071730008D175000819
:10004000FF020008FF020008FF020008FF0200088C
:10005000FF020008FF020008FF020008FF0200087C
:10006000FF020008FF020008FF020008090800085C
:1000700019080008FF020008FF020008FF0200083C
:10008000FF020008FF020008FF020008FF0200084C
:10009000FF020008FF020008FF020008FF0200083C
:1000A000FF020008FF020008FF020008FF0200082C
:1000B000FF020008FF020008FF020008FF0200081C
:1000C000FF020008FF020008FF020008FF0200080C
:1000D000FF020008D98F0008FF020008E98F00081E
:1000E000FF020008FF02000800000000FF020008F5
:1000F000FF020008FF020008FF020008FF020008DC
:10010000FF020008FF020008FF020008FF020008CB
:10011000FF020008FF020008FF020008FF020008BB
:10012000FF020008FF020008FF020008FF020008AB
:10013000FF020008FF020008FF020008FF0200089B
:1001400000000000000000000000000000000000AF
:10015000FF020008FF020008FF020008FF0200087B
:10016000FF020008FF020008FF020008FF0200086B
:10017000FF020008FF020008FF0200080000000064
:10018000FF020008FF020008FF020008FF0200084B
:10019000FF020008FF020008FF020008FF0200083B
:1001A000FF020008FF020008FF0200080000000034
:1001B000FF020008FF020008FF020008FF0200081B
:1001C000FF020008FF02000800000000000000001D
:1001D0000000000000000000FF0200080000000016
:1001E000000000000000000000000000000000000F
:1001F0000000000000000000FF020008FF020008ED
:10020000FF020008FF02000800000000FF020008D3
:10021000FF020008FF020008FF020008FF020008BA
:10022000FF02000800000000FF02000800000000BC
:10023000FF020008FF02000800000000FF020008A3
:10024000FF020008FF020008FF020008FF0200088A
:10025000FF020008FF020008FF020008FF0200087A
:10026000FF020008FF020008FF020008FF0200086A
:10027000FF020008FF020008FF0200080000000063
:10028000FF020008FF020008FF020008FF0200084A
:1002900000000000FF020008FF020008000000004C
:1002A00000000000FF020008FF020008FF02000833
:1002B000FF020008FF020008FF020008FF0200081A
:1002C000FF020008FF020008FF020008DFF80CD060
:1002D00000F07EF80048004769960008A856002400
:1002E000074880470748804707480047FEE7FEE782
:1002F000FEE7FEE7FEE7FEE7FEE7FEE7FEE7FEE7D6
:10030000710C0008A9760008CD0200082DE9F05F05
:100310000546002092469B46884606468146402474
:100320001BE0284641464746224600F041F8534626
:100330005A46C01A914110D311461846224600F081
:1003400028F82D1A67EB01084F46224601200021AC
:1003500000F01FF817EB00094E41201EA4F1010424
:10036000DFDC484631462A464346BDE8F09FD2B21C
:1003700001E000F8012B491EFBD270470022F6E78E
:1003800010B513460A4604461946FFF7F0FF20460B
:1003900010BD202A04DB203A00FA02F10020704749
:1003A0009140C2F1200320FA03F3194390407047B3
:1003B000202A04DB203A21FA02F00021704721FABA
:1003C00002F3D040C2F12002914008431946704721
:1003D0001CB509480090094801900546009C06E0BC
:1003E000E06840F0010394E8070098471034AC42FD
:1003F000F6D3FFF76FFF000074DF000894DF0008FA
:1004000010B50446006842F2001140F48070C4F256
:100410000201884218D142F20830C4F2020000689A
:1004200010F4403F18D005F037F96168B1F5803F0E
:1004300005D0B1F5403F2BD0B1F5003F29D1090CD3
:10044000B0FBF1F025E000BF46F20830C5F602002F
:10045000006810F4403FE6D14FF40020002104F082
:10046000F3F86168A1F580224FEAB2420A2A10D857
:10047000DFE802F0060606060606403E443C42005F
:100480006FF0010202EA5141B0FBF1F001E000BF60
:1004900080084BF62141C0F2BE01884206D8206890
:1004A000816821F44071816010BD00BF47F64101B1
:1004B000C0F27D11884207D820680122816862F36A
:1004C0000921816010BD00BF21684FF28102C0F296
:1004D000FA229042886805D8022262F309208860D7
:1004E00010BD00BF40F44070886010BDC009D0E767
:1004F0004009CEE70009CCE7000ACAE78009C8E74F
:1005000070B5044600688268836802F0040203F054
:100510000803D2186CD0C268920121D5627E012AEC
:100520001ED1227E012A1BD10168490613D44DF643
:100530000441C0F20C01043950D0026852065CBF7D
:1005400002685FEA426206D4026852065CBF026833
:100550005FEA4262EFD540210160012106E000BF61
:10056000022903D10221082612E000BF8268520747
:100570000AD58268920707D44FF6C0738268C7F61F
:10058000FF731A401032826001294FF0040610D028
:10059000826812070AD58268920707D44FF6C073A3
:1005A0008268C7F6FF731A4020328260032908BFB1
:1005B0000C2603F025FD21688968314218D00546D4
:1005C00003E000BF8068304212D003F019FD401BE9
:1005D00006282068F6D381683142F3D0206E40F0BF
:1005E00010002066606E40F001006066012070BD62
:1005F000002070BD000000000146806B026E12F00A
:10060000500F026E06D0D20610D4806DC26C084620
:10061000104700BF42F40071016601680A681207C2
:10062000CA6805D4910709D000F07ABF00F080BFF6
:1006300012F4406FF8D1C9688904F5D4016E21F431
:1006400080710166016EC904EED4016E41F00101B2
:10065000016600F065BF0000806B016E41F0400153
:100660000166416E41F00401416600F061BF000087
:10067000806B00F059BF0000B0B5016804468A687D
:100680008868C0074FF0000031D012F0020218BF96
:10069000B0BD886800F00D0001281FD14FF6C07270
:1006A0008868C7F6FF721040023088600320086037
:1006B00003F0A6FC21688968C90701D10020B0BDFC
:1006C000054602E08068C007F8D003F099FC401BA3
:1006D00003282068F6D38168C907F3D0206E40F064
:1006E00010002066606E40F0010060660120B0BD21
:1006F000F0B581B0044600688168C9074AD14FF659
:10070000C0778168C7F6FF7707F17F0211420BD0EF
:10071000206E40F010002066606E40F001006066C0
:10072000012001B0F0BD00BF8168394041F00101F6
:10073000816003F065FC42F2000246F20836C4F222
:100740000202216802F5807302F54275C5F60206C1
:10075000994208BF2E46914208BF2E46994205464F
:10076000306814D110F01F0014D110E08868C00761
:1007700004D18868384040F00100886003F040FCF4
:10078000401B2168032802D30868C007C0D008684E
:10079000C007EBD0002001B0F0BD00000000000059
:1007A000FEE700000000000010B5846B204601F059
:1007B000C7FA0120207110BD10B5846B204601F0EE
:1007C000F7F90120207110BD10B5846B206940F04D
:1007D00004002061204601F0BBFA0120207110BD09
:1007E00010B5846B206940F004002061204601F0C0
:1007F000E7F90120207110BD806B01F0A5BA00005F
:10080000806B01F0D9B9000043F64C00C2F2004001
:1008100002F07AB90000000043F2D470C2F2004046
:1008200002F072B90000000040F20F42D0F800C0A0
:10083000C4F20202944511DC6F22C4F20202944514
:1008400022DC3F22C4F20202944539DC1022C4F2B9
:10085000020294455AD0282254E000BF40F26F4271
:10086000C4F2020294451BDC40F23F42C4F2020291
:1008700094452DDC40F21042C4F20202944545D06A
:1008800040F228423EE000BF9F22C4F2020294459B
:1008900028DC7022C4F20202944537D0882231E06D
:1008A00040F29F42C4F20202944523DC40F27042BF
:1008B000C4F20202944529D040F2884222E000BFEF
:1008C0004022C4F20202944520D058221AE000BF10
:1008D00040F24042C4F20202944517D040F258421E
:1008E00010E000BFA022C4F2020294450ED0B8224C
:1008F00008E000BF40F2B842C4F20202944505D0BD
:1009000040F2A042C4F20202944517D10CF0F80262
:100910004AF6AB23103ACAF6AA23A2FB03310AA374
:100920005F2AC1F302115B5C40F2FF312CEA010146
:10093000C36588BF04318165084670472CF0FF010C
:1009400081650846704700BF0006101600061016A5
:1009500070B540F26F44D0F800C0C4F20204D0F881
:1009600058E0A4451ADC9F25C4F20205AC4533DCEF
:100970005725C4F20205AC455ADC1025C4F2020525
:10098000AC4500F098802825C4F20205AC4500F083
:1009900092804025C4F202058AE000BF45F22F454F
:1009A000C5F60205AC452DDC40F2B745C4F20205A0
:1009B000AC454BDC40F27045C4F20205AC457AD040
:1009C00040F28845C4F20205AC4574D040F2A0451F
:1009D000C4F202056CE000BF40F22745C4F20205F4
:1009E000AC4543DCA025C4F20205AC4563D0B82574
:1009F000C4F20205AC455ED040F21045C4F20205D7
:100A000056E000BF45F26B45C5F60205AC453FDC3C
:100A100045F23045C5F60205AC454CD045F244459B
:100A2000C5F60205AC4546D045F258453EE000BF4C
:100A30005825C4F20205AC453DD07025C4F202052C
:100A4000AC4538D08825C4F2020531E040F2B84503
:100A5000C4F20205AC452ED045F20845C5F60205A4
:100A6000AC4528D045F21C4520E000BF40F22845A7
:100A7000C4F20205AC451ED040F24045C4F2020566
:100A8000AC4518D040F25845C4F2020510E000BF52
:100A900045F26C45C5F60205AC450CD045F29445CF
:100AA000C5F60205AC4506D045F28045C5F60205FF
:100AB000AC4540F0D080456EC66E002E866E6E60EE
:100AC0001CBFD0E91C566E60A44515DC9F24C4F2FF
:100AD0000204A4452CDC5724C4F20204A44551DCD2
:100AE0001024C4F20204A4457AD02824C4F20204DB
:100AF000A44575D040246FE045F22F44C5F60204AA
:100B0000A44529DC40F2B744C4F20204A44545DC04
:100B100040F27044C4F20204A44561D040F288441B
:100B2000C4F20204A4455BD040F2A04454E000BFEC
:100B300040F22744C4F20204A4453FDCA024C4F2DE
:100B40000204A4454CD0B824C4F20204A44547D002
:100B500040F2104440E000BF45F26B44C5F6020489
:100B6000A44555DC45F23044C5F60204A44561D0E5
:100B700045F24444C5F60204A4455BD045F258440E
:100B800054E000BF5824C4F20204A44528D07024C5
:100B9000C4F20204A44523D088241DE040F2B844E6
:100BA000C4F20204A4451BD045F20844C5F6020471
:100BB000A4453FD045F21C4438E000BF40F2284431
:100BC000C4F20204A4450BD040F24044C4F2020433
:100BD000A44505D040F25844C4F20204A4453AD1D9
:100BE0008468C06D00F01F003F2505FA00F0CEF8C4
:100BF0000800DCF80000402C20F48020CCF8000035
:100C0000CCF8043023D1CCF80820CCF80C1070BDFF
:100C100045F26C44C5F60204A4450BD045F280446D
:100C2000C5F60204A44505D045F29444C5F6020475
:100C3000A44510D1C46D012504F01F04806805FA95
:100C400004F4CEF804404028CCF80430DBD0CCF8D3
:100C50000810CCF80C2070BD7047000000000000A8
:100C6000EFF3108072B600BFFEE700000000000046
:100C700044F60400C5F60200816841F0020181607B
:100C80000168890409D4016889045CBF01685FEACE
:100C9000814102D401688904F2D570470000000048
:100CA00070B582B000230193044690F85C000128DF
:100CB00002D1022002B070BD012084F85C00204601
:100CC0000E461546FFF7D8FC216E18B141F0100111
:100CD0004CE000BF41F202124FF6C0739143C3F6DD
:100CE000FE7302312166216806F4803605F08045E6
:100CF0008A682E4413404FF2FF72C2F2C35233444B
:100D000003F100438B608B68B3F1FF3F2ADC019B4A
:100D100001330193019B93421DD88B68B3F1FF3FD0
:100D200020DC019B01330193019B934213D88B6814
:100D3000B3F1FF3F16DC019B01330193019B93420A
:100D400009D88B68B3F1FF3F0CDC019B01330193A1
:100D5000019B9342D7D9206E40F0100020F0020191
:100D6000012003E0216E012262F3010121660021CE
:100D700084F85C1002B070BD90F85C20012A01D1AB
:100D80000220704710B582B042F20834002301936C
:100D9000C4F202040093A4F542720368934227D17F
:100DA0004FF6006ECFF6FF7E54F80E209B681A4374
:100DB00052071DD4D1F800C02268BCF1000F22F404
:100DC000404323D04A681A4322604FF60052CFF6C0
:100DD000FF72A25854F80E301A43D20726D1226867
:100DE00040F61F739A438968114341EA0C011CE0E5
:100DF000016E41F0200101660121002280F85C2093
:100E000002B0BDE810400846704700BF4FF60051E1
:100E10002360CFF6FF71615854F80E201143C907C3
:100E200004D1216840F61F72914321600021E4E75C
:100E30002DE9F04381B00022009290F85C20012A55
:100E400004D10221084601B0BDE8F0830368012205
:100E500080F85C209A68520700F1008346F2083C53
:100E60004FF6FF7EC5F6020CC0F20F0EACF54278CD
:100E70000C68434516D0B4F1FF3F13DD94FAA4F596
:100E800014EA0E0FB5FA85F54FF0010608BFA50E5E
:100E9000A40E05F01F0506FA05F5DE693543DD6190
:100EA00001E000BFA40E4D681F2204F01F04C5F32B
:100EB000012605F01F05AA4003EB8606AC40376B00
:100EC00027EA0202224332639A689C6802F0040215
:100ED00004F00804121940F034810A6807268D686E
:100EE0004345C2F34064C2F3045203EB840406FAA0
:100EF00002F6676905FA02F227EA060642EA0602E6
:100F000062613FD041F20002C5F60042126802F071
:100F10007042B2F1805F40F0A5804A69DC680E251E
:100F200005EA540402FA04F40D69042D00F0D3809C
:100F300003F160020E6806F0F84652F8257007F0DB
:100F400000473E44344342F825400C6991F8215053
:100F500052F82460012D26F0004608BF06F1004635
:100F600042F824600A7E0C691D69013A04F01F04EE
:100F7000B2FA82F225F4F0455209D202A2402A4385
:100F80001A61DEE04FF6045203F16004CFF6FF72FF
:100F9000D1E90456042D5CF802706DD14FF6585219
:100FA000CFF6FF725CF8022022680F68C2F38462F9
:100FB00017EA0E09C7F3846697FAA7F7B7FA87F519
:100FC0002F4608BF3746BA420CD1226822F00042B1
:100FD00022600A6802EA0E09C2F3846692FAA2F25B
:100FE000B2FA82F562682F466268B9F1000F08BF55
:100FF0003746C2F38462BA420CD1626822F00042E2
:1010000062600A6802EA0E09C2F3846692FAA2F2EA
:10101000B2FA82F5A2682F46A268B9F1000F08BFA4
:101020003746C2F38462BA420CD1A26822F0004271
:10103000A2600A6802EA0E09C2F3846692FAA2F27A
:10104000B2FA82F5E268B9F1000FE26808BF3546EE
:10105000C2F38462AA4274D1E26822F00042E260E4
:101060006FE000BFDA684C69DD68D2064FEA5505CB
:101070002AD405F00E0229E04FF006090A6809EAB1
:10108000970702F0F842BE4054F82570324342F010
:10109000004244F825200A69ACF52A74CD6954F859
:1010A000226026F08076354344F822500A6991F890
:1010B000205054F82260012D26F0007608BF06F17A
:1010C000007644F822603CE005F0080294400D6987
:1010D000042D7FF42DAF1A6E0C6802F0F842A406BE
:1010E000A24217D11A6E22F000421A665A6E02F01E
:1010F000F842A24213D09A6E02F0F842A24217D1EF
:101100009A6E22F000429A66DA6E02F0F842A2422B
:1011100013D016E05A6E02F0F842A242EBD15A6E9A
:1011200022F000425A669A6E02F0F842A242E7D0DC
:10113000DA6E02F0F842A24203D1DA6E22F00042E7
:10114000DA669A68D20740F04381ACF516724345DF
:1011500018BF03F1C002CE680D6806F018061768C4
:1011600005EA0E042EFA06F640F20009A7432E40C7
:10117000C4F2527937431760CA6809F52D07BA429D
:1011800040F0228146F20002C5F6020293423FD0AF
:1011900042F20012C4F20202934227D042F200024D
:1011A000C4F20202934249D11F220F68C1F2F042F9
:1011B00097426FDD40F2FF72C2F63062974247DD20
:1011C00040F60002C2F63062974200F0C78041F25A
:1011D0000002C3F26022974200F092800022C4F223
:1011E0002132974200F0D880BEE000BF1F220F6876
:1011F000C1F2F042974225DC0722C0F690429742A6
:101200005CDC0222C0F2304297424DD162E000BF66
:101210001F220F68C1F2F042974225DC0722C0F678
:101220009042974272DC0222C0F23042974251D083
:101230000422C0F6600297423BD0A1E04FF00009C3
:10124000AAE000BF40F2FF72C2F6306297424BDC68
:101250002022C1F2F042974240D040F20042C2F652
:101260000022974211D07FE040F2FF72C2F6306256
:10127000974261DC2022C1F2F04297422ED040F228
:101280000042C2F6002297427AD140F60009C2F627
:10129000306981E00722C0F6904297420EDC0222BC
:1012A000C0F23042974215D00422C0F66002974245
:1012B0005AD140F24009C1F620196DE00822C0F66B
:1012C0009042974232D01022C1F2C002974227D0FA
:1012D0004AE000BF4FF001095EE000BF40F2002984
:1012E000C2F2B05958E000BF40F60002C2F63062C8
:1012F000974233D041F20002C3F26022974233D1C9
:1013000042F20009C3F2906946E000BF0822C0F62D
:10131000904297420AD01022C1F2C00297422FD1C8
:1013200040F20019C2F2801936E000BF40F2800995
:10133000C1F6505930E000BF40F60002C2F63062FC
:1013400097420BD042F20002C3F29062974217D14B
:1013500044F20009C3F6C0291EE000BF41F20009B3
:10136000C3F2602918E000BF00224FF00009C4F664
:101370008432974204BF40F20009C4F6B8790BE00A
:1013800044F200024FF00009C3F6C022974204BFA6
:1013900048F20009C3F6F069434515D099FAA9F25D
:1013A0004FF6C137B2FA82F2C0F20A0719EA070F04
:1013B0004FF0010708BF4FEA996202F01F0207FAD7
:1013C00002F2DF693A43DA610F68B7F1FF3F01DDEE
:1013D000002148E042F2000142F20015C4F202018D
:1013E000C4F2020501F5807201F54276934262462D
:1013F00008BF32468B4208BF324643F48076AE4285
:10140000166823D18A68D1F808111143C90725D17C
:10141000002106F0E075CCF252718F4208BF16F43D
:10142000000127D00021CCF221318F4260D1002170
:10143000B1EB156F5CD1434515D1DCF8001021F0FC
:10144000E071294341F0807165E000BF4FF6005123
:10145000CFF6FF715CF80110C907D9D0016E41F0D9
:10146000200101660121002280F85C20084601B0BD
:10147000BDE8F0834345ABD1DCF8001042F663527F
:1014800021F0E071C0F23E52294341F40001CCF852
:10149000001040F20C01C2F2004109688909A1FB69
:1014A00002129109022202EB4101009100990029E8
:1014B0008ED0009901390091009900293FF488AF3E
:1014C000009901390091009900293FF481AF0099FA
:1014D00001390091009900293FF47AAF0099013950
:1014E0000091009900294FF00001E2D1BBE700BF55
:1014F00043454FF00001B6D10022CCF6843297422A
:1015000008BF16F48002AED1DCF8001021F0E071C3
:10151000294341F48001CCF8001059E70000000095
:1015200009F096BA0000000009F0B2BA000000000D
:1015300009F0CEBA00000000406E704700000000C5
:1015400070B582B04FF00001019178B3016E39B9E6
:10155000044600F075F920460021616684F85C10AD
:1015600001688A6892004FF6C072C5F6FF7202D514
:101570008B6813408B608B68DB0032D48B6802F180
:1015800080521A4042F6635342F080528A6040F221
:101590000C02C0F23E53C2F2004212689209A2FB52
:1015A0000323012202EB931206E000BF0124204630
:1015B00002B070BD019A013A0192019A8AB1019A72
:1015C000013A0192019A62B1019A013A0192019A9B
:1015D000002A1FBF019A013A0192019A18BF002AFE
:1015E000E8D18A68D20009D4026E012442F01002C8
:1015F0000266426E42F00102426600E000248A6800
:10160000036E03F0100302F00402D218026E55D1EB
:1016100022F4817246F2000C023202668A68C5F634
:10162000020CD20723D142F2001341F48072C4F2BB
:1016300002039A4242F20002C4F2020240F0E88041
:101640009368D2F808512B43DB0710D102F5807361
:101650009942634608BF1346914208BF0B46426851
:10166000D3F8085325F47C152A43C3F80823427E97
:10167000C36B614543EA423328D082681A4390F82D
:101680002030012B42EA034306D1426A0025CFF6FF
:10169000FE7505EB42421343826A22B102F478726E
:1016A000C56A2A43134361451ED04CF20305CA683C
:1016B000CFF6F0752A401A43CA6024E042F01001C8
:1016C00001240166204602B070BD00BFD0E90225AA
:1016D000082A00F0A5800C2A00F0A0801C2A40F007
:1016E000A1801022A1E000BF44F20705DCF80C2025
:1016F000CFF6F0752A401A43CA600A69436B22F09C
:1017000040621A430A618A688B6802F0040203F09F
:101710000803D21869D1027E61454FEA823229D08E
:10172000036BCE6844F20305AE4333431A43CA60E9
:1017300090F84420012A47D14FF61E030A69CFF6DC
:101740000043D0F840C01A400123D0E91265CFF61B
:10175000FF732A4303EB0643066D1A43436D32437E
:101760001A430A610A6922F0704242EA0C020A61D5
:1017700037E000BFCB6890F8385044F2030E90F881
:10178000446023EA0E0343EA4503012E42EA0302C2
:10179000CA6019D14FF61E03DCF81020CFF60043C3
:1017A0001A40D0E912361A43036D3243466D1A438C
:1017B000036C324342F001020A610A6922F070426E
:1017C0001A430A6111E000BF0A69614522F0010273
:1017D0000A610A69036C22F0704242EA03020A615C
:1017E00003D00546FEF70CFE2846016802690B6B24
:1017F000012A23F00F0202D1C369013B1A430A6395
:101800000122016E62F301010166204602B070BD43
:10181000DCF80830DB073FF419AF28E7082204E0C2
:10182000002202E0182A18BF00222A431A4390F827
:101830002030012B42EA03433FF427AF2CE700009E
:1018400070B5B6B0044602A8283090210025319525
:10185000CDE93455CDE93255FEF790FD42F2000155
:101860002068C4F20201884202D036B070BD00BFC9
:101870004FF400200290042004900C2005900220D8
:101880000890CDE90600C0200395CDE9090502A81E
:101890000B9503F095F808B1FFF7E2F944F2D84050
:1018A0000026C5F60200016841F0200101600168D0
:1018B00001F0200101910199816841F004018160EA
:1018C000806831A900F00400019001980120319056
:1018D0000320329040F60000C5F60200339602F075
:1018E000BBFA43F2D4752820C2F20045C4F20200CC
:1018F00028600920C5E901064FF4806028614FF493
:10190000006068614FF40050EE60C5E906064FF4D0
:101910004030C5E90806284601F002FD08B1FFF78E
:101920009FF9A565AC6336B070BD000000000000F3
:101930002DE9F04742F2001446F20C0AC4F2020408
:10194000C5F6020A04F5027607683346A4F58075E9
:10195000A74218BF0AF53F73AF4208BF33461B6862
:10196000BF687F0703D490F85C70012F02D102207A
:10197000BDE8F08703F01F050123092D80F85C30D6
:101980004CD8AB4040F221273B4247D08946904695
:101990000746FEF7ADFE28B1002087F85C00012065
:1019A000BDE8F087396840F60173386E3A469843CF
:1019B00000F5807038660DB1A14203D0106E20F49E
:1019C00080101066106E40F2F956C0044FF000000F
:1019D00044BF506E20F0060040F27165C0F600066C
:1019E0005066C0F60005906D0023C0E90F6540F217
:1019F0005966C0F60006C6641C260E6082F85C308C
:101A0000AAF10C034E68994246F010034B600BD0CC
:101A1000126BCB6823F003031A4312E0002180F815
:101A20005C100120BDE8F08792F83820DAF8003029
:101A300023F0030343EA4202CAF80020CA6842F0D6
:101A40000102CA6040314A46434601F0B9FF396895
:101A50004FF6C073C7F6FF738A681A4004328A6073
:101A6000BDE8F0870000000070B5044690F85C0007
:101A7000012801D1022070BD03212046012584F8F0
:101A80005C50FEF73DFD28B1002084F85C0028463C
:101A900070BD00BF2168A06DCA6822F00302CA6051
:101AA00090F83520022A3AD100F072FAB0B3054618
:101AB0002068216E41F040012166416821F010014B
:101AC000416081688268D207DED011F00201DBD16B
:101AD000816801F00D0101291ED14FF6C0728168A5
:101AE000C7F6FF721140023181600321016002F0EC
:101AF00087FA21688968C907C6D0064603E000BF97
:101B00008068C007C0D002F07BFA801B03282068E1
:101B1000F6D38168C907F3D0206E39E021684868A0
:101B200020F01000486088688A68D20717D010F04B
:101B3000020014D1886800F00D00012826D14FF66C
:101B4000C0728868C7F6FF721040023088600320B8
:101B5000086002F055FA21688968C90708D1204653
:101B600041F20112002550F8601F914316E000BFBA
:101B7000054602E08068C007F1D002F041FA401B40
:101B800003282068F6D38168C907F3D0206E0125A9
:101B900040F010002066204650F8641F41F001011B
:101BA0000160002084F85C00284670BD0000000041
:101BB00070470000000000007047000000000000B7
:101BC00070470000000000002DE9F04104460028A5
:101BD0004FF0010018BF002902D1BDE8F08100BF1D
:101BE000607901284FF0020008BFBDE8F0810B6862
:101BF0000127042B677120711ED10F46154602F094
:101C0000FFF92368A846002D0546586B24D0B0F193
:101C1000FF3F06DD3946B86958643AE0586B002842
:101C2000F8D502F0EDF9401B23680228F6D3586B73
:101C3000B0F1FF3FF2DC21E023680869012843D1BD
:101C400002F010021F27986B97404E69B84306FABE
:101C500002F73843986339E048F20006C2F2000602
:101C600001E000BF586B304210D002F0C9F9401BB0
:101C700023680228F6D3586B3042F3D0206940F035
:101C80000800206103202071BDE8F0813946B86961
:101C9000186408F0100040F2FF379E6C8740D1E9CD
:101CA000075C26EA070705FA00F637439F64FF271B
:101CB000DE6C8740424626EA07070CFA00F03843FC
:101CC000D86408690128BBD002F010020727D86B3E
:101CD000CE689740012E20EA070C4FF0000003D099
:101CE000022E03D1012605E0002603E08E68B6FA35
:101CF00086F676090D688F682E433743496897400A
:101D000047EA0C07DF634FF480471E68974026EAD6
:101D100007071F6040F6FE771E68974026EA070710
:101D2000914039431960C02191401A6822EA0101AB
:101D30001960012121716071BDE8F081000000008F
:101D400008F0D6BE0000000008F0EABE0000000067
:101D500008F0FABE0000000090B1017941B910B559
:101D600000214171044600F00FF82046BDE8104004
:101D700002210171002101610122027108467047B0
:101D8000012070470000000070B586B047F20041A6
:101D900004460068C4F2000100268842CDE90466CA
:101DA00003960296019601D006B070BD44F2E04061
:101DB000C5F60200816841F000518160816801F040
:101DC000005100910099016841F001010160006833
:101DD00001A900F00100009000981020019003205C
:101DE000CDE902060020C5F6020002F035F843F600
:101DF0004C051020C2F20045C4F202004FF400610D
:101E00002860432068604020A8604FF4806028610B
:101E10004FF4005069614FF48071C5E906014FF439
:101E20004030EE60C5E90806284601F079FA08B1AD
:101E3000FEF716FFA560AC6306B070BD00000000A1
:101E4000B0B38446407901284FF0020008BF7047C4
:101E5000F0B581B0069C0F464FF001068CF8056086
:101E60008CF8040031B3DCF80C0040F2B97140F694
:101E70000106C0F60001C0F60006042CC0E90F16EA
:101E800040F2E176DCF80010C0F60006C6644FF0C0
:101E90001C06654608BF1826002C0C6808BF1426CF
:101EA00044F080540C6001EB060C4FF0005424E029
:101EB00001207047DCF8080040F2A97140F2F97582
:101EC00040F2C976C0F60001C0F60005C0E90F1562
:101ED000C0F60006DCF80010C6641026042C654627
:101EE00008BF0C26002C0C6808BF082644F4805458
:101EF0000C6001EB060C4FF400540E6826430E6094
:101F00001146624601F05CFD4FF00001697118B1A5
:101F100005F11001042204E007F0100101228A40BB
:101F200029680B681A430A6001B0BDE8F0407047A9
:101F300070B54FF0010E38B3036801F0100C4FF488
:101F40008052002902FA0CF21C6824EA02021A608C
:101F50004FF00C04196808BF08240EFA0CF26FF059
:101F6000005521EA0201196008BF6FF400550159BC
:101F700006460846012400F00BF830684FF0000ECA
:101F80000168294001603471704670BD0000000096
:101F90002DE9F041044602F033F81CB3054694F8ED
:101FA0003500022822D140F20F472668C4F202070A
:101FB00040F26F48BE426FF00E00C4F202081DDC12
:101FC0006F21C4F202018E422ADC3F21C4F20201D9
:101FD0008E4241DC1021C4F202018E4263D02821DE
:101FE0005CE000BF0120BDE8F08100BF802060659B
:101FF0000120002184F83410BDE8F08146451BDC47
:1020000040F23F41C4F202018E422DDC40F2104109
:10201000C4F202018E4246D040F228413EE000BFA9
:102020009F21C4F202018E4228DC7021C4F2020119
:102030008E4238D0882131E040F29F41C4F2020143
:102040008E4223DC40F27041C4F202018E422AD05B
:1020500040F2884122E000BF4021C4F202018E42DA
:1020600021D058211AE000BF40F24041C4F20201E1
:102070008E4218D040F2584110E000BFA021C4F2B7
:1020800002018E420FD0B82108E000BF40F2B841F3
:10209000C4F202018E4206D040F2A041C4F2020115
:1020A0008E42314607D13146306820F01E0041F89B
:1020B000140B6FF080000A68464500EA02000860D1
:1020C0001ADC9F20C4F20200864233DC5720C4F29F
:1020D000020086425ADC1020C4F20200864200F060
:1020E00097802820C4F20200864200F091804020B0
:1020F000C4F202008AE000BF45F22F40C5F602009C
:1021000086422DDC40F2B740C4F2020086424BDC2E
:1021100040F27040C4F20200864279D040F288401A
:10212000C4F20200864273D040F2A040C4F2020022
:102130006CE000BF40F22740C4F20200864243DC5C
:10214000A020C4F20200864262D0B820C4F202008D
:1021500086425DD040F21040C4F2020056E000BF5B
:1021600045F26B40C5F6020086423FDC45F2304046
:10217000C5F6020086424BD045F24440C5F6020047
:10218000864245D045F258403EE000BF5820C4F298
:10219000020086423CD07020C4F20200864237D052
:1021A0008820C4F2020031E040F2B840C4F20200DC
:1021B00086422DD045F20840C5F60200864227D05F
:1021C00045F21C4020E000BF40F22840C4F202006B
:1021D00086421DD040F24040C4F20200864217D031
:1021E00040F25840C4F2020010E000BF45F26C40DB
:1021F000C5F6020086420BD045F29440C5F60200B7
:10220000864205D045F28040C5F60200864204D1E0
:10221000206E016821F480710160306820F00100B7
:10222000306000BF3068C00710D001F0E9FE401BED
:102230000628F7D320206065032084F835000120AC
:10224000002184F83410BDE8F08100BF2068082127
:10225000B8424FF03F0211DC6F23C4F202039842F0
:102260001EDC3F23C4F20203984235DC1023C4F283
:102270000203984257D0282350E000BF40451BDCA2
:1022800040F23F43C4F2020398422DDC40F2104377
:10229000C4F20203984246D040F228433EE000BF19
:1022A0009F23C4F20203984228DC7023C4F2020385
:1022B000984238D0882331E040F29F43C4F20203B1
:1022C000984223DC40F27043C4F2020398422AD0C1
:1022D00040F2884322E000BF4023C4F20203984248
:1022E00021D058231AE000BF40F24043C4F2020359
:1022F000984218D040F2584310E000BFA023C4F227
:10230000020398420FD0B82308E000BF40F2A04378
:10231000C4F20203984206D040F2B843C4F202036A
:10232000984240F0C580D4E9163707F01F074045B2
:1023300002FA07F25A5019DC9F21C4F202018842C6
:1023400032DC5721C4F20201884259DC1021C4F268
:102350000201884200F096802821C4F202018842DE
:1023600000F090804021C4F2020189E045F22F4143
:10237000C5F6020188422DDC40F2B741C4F20201E9
:1023800088424BDC40F27041C4F20201884279D0AD
:1023900040F28841C4F20201884273D040F2A04169
:1023A000C4F202016CE000BF40F22741C4F2020116
:1023B000884243DCA021C4F20201884262D0B821E5
:1023C000C4F2020188425DD040F21041C4F2020121
:1023D00056E000BF45F26B41C5F6020188423FDC82
:1023E00045F23041C5F6020188424BD045F24441E6
:1023F000C5F60201884245D045F258413EE000BF93
:102400005821C4F2020188423CD07021C4F202017A
:10241000884237D08821C4F2020131E040F2B8414D
:10242000C4F2020188422DD045F20841C5F60201EE
:10243000884227D045F21C4120E000BF40F22841ED
:10244000C4F2020188421DD040F24041C4F20201B0
:10245000884217D040F25841C4F2020110E000BF98
:1024600045F26C41C5F6020188420BD045F2944119
:10247000C5F60201884205D045F28041C5F6020149
:1024800088420BD1616EA26EE06E4A6030B1016885
:1024900021F480710160D4E91C014160012084F8BD
:1024A00035000020002184F83410BDE8F08100BF21
:1024B0000421012237E70000F0B190F8351002291D
:1024C00018D180B540F20F420168C4F20202914275
:1024D00014DC6F23C4F20203994225DC3F23C4F2CB
:1024E000020399423CDC1023C4F2020399425DD0FE
:1024F000282357E0802141650120704740F26F4357
:10250000C4F2020399421BDC40F23F43C4F20203CF
:1025100099422DDC40F21043C4F20203994245D0A7
:1025200040F228433EE000BF9F23C4F202039942D9
:1025300028DC7023C4F20203994237D0882331E0AB
:1025400040F29F43C4F20203994223DC40F27043FD
:10255000C4F20203994229D040F2884322E000BF2E
:102560004023C4F20203994220D058231AE000BF4E
:1025700040F24043C4F20203994217D040F258435C
:1025800010E000BFA023C4F2020399420ED0B8238A
:1025900008E000BF40F2B843C4F20203994205D0FC
:1025A00040F2A043C4F20203994275D191424FF028
:1025B000040280F8352011DC6F20C4F20200814251
:1025C00022DC3F20C4F20200814239DC1020C4F238
:1025D0000200814259D0282054E000BF40F26F40F1
:1025E000C4F2020081421BDC40F23F40C4F2020010
:1025F00081422DDC40F21040C4F20200814244D0FE
:1026000040F228403EE000BF9F20C4F20200814219
:1026100028DC7020C4F20200814236D0882031E0EC
:1026200040F29F40C4F20200814223DC40F270403D
:10263000C4F20200814228D040F2884022E000BF6C
:102640004020C4F2020081421FD058201AE000BF8F
:1026500040F24040C4F20200814216D040F258409D
:1026600010E000BFA020C4F2020081420DD0B820CB
:1026700008E000BF40F2B840C4F20200814204D03A
:1026800040F2A040C4F202008142086820F001003C
:102690000860002080BD00BF0A6822F00E020A60B8
:1026A00045F25742C5F6020291420A6822F0010241
:1026B0000A600FDC45F22F42C5F60202914219DC96
:1026C00045F20842C5F60202914229D045F21C4269
:1026D00022E000BF45F27F42C5F60202914213DCC0
:1026E00045F25842C5F60202914219D045F26C42B9
:1026F00012E000BF45F23042C5F6020291420FD00F
:1027000045F2444208E000BF45F29442C5F6020299
:10271000914205D045F28042C5F6020291421AD19B
:10272000D0E9181CD0E916E30A6822F480720A6026
:1027300003F01F01012202FA01F1CEF80410816EAC
:10274000CCF80410C16E31B10A6822F480720A60BC
:10275000D0E91C124A60012180F83510016D002279
:10276000002980F8342094D08847002080BD0000E4
:10277000F0B581B020B30446006840F26F420125F5
:10278000C4F202020168904221F0010101601BDCE9
:102790009F21C4F2020188423ADC5721C4F20201AF
:1027A00088425FDC1021C4F20201884200F0898077
:1027B0002821C4F20201884200F0838040217BE09E
:1027C0000125284601B0F0BD45F22F414FF0000C25
:1027D000C5F602014FF0100E0C2388424FF0080698
:1027E0004FF0040728DC40F2B741C4F202018842EE
:1027F00044DC40F27041C4F20201884261D040F2F0
:102800008841C4F2020188425BD040F2A04153E00B
:1028100040F22741C4F2020188423FDCA021C4F209
:10282000020188424DD0B821C4F20201884248D04A
:1028300040F2104140E000BF45F26B41C5F6020195
:1028400088424BDC45F23041C5F60201884259D03E
:1028500045F24441C5F60201884253D045F2584141
:102860004AE000BF5821C4F20201884229D07021F9
:10287000C4F20201884224D088211DE040F2B84110
:10288000C4F2020188421CD045F20841C5F602019B
:10289000884237D045F21C412EE000BF40F228416B
:1028A000C4F2020188420CD040F24041C4F202015D
:1028B000884206D040F25841C4F2020188427FF4B7
:1028C00080AF014600223F254FF0210C41F8042B38
:1028D0004FF0140E10230C26082714E045F26C412B
:1028E000C5F6020188420DD045F28041C5F60201CD
:1028F000884207D045F29441C5F60201884201465C
:1029000001D05EE7014600220A60C251825145F6BD
:10291000FC06C250C5F6020640F80EC02046FDF780
:1029200083FF45F2574E2168E36DC5F6020E03F0B2
:102930001F03714505FA03F3C35113DC45F22F4021
:10294000C5F60200814221DC45F20840C5F60200CE
:10295000814235D045F21C40C5F6020081422FD09D
:10296000A0E000BF45F27F40C5F6020081421BDCBB
:1029700045F25840C5F60200814221D045F26C4034
:10298000C5F6020081421BD08CE000BF45F230400A
:10299000C5F60200814213D045F24440C5F602005C
:1029A00081420DD07EE000BF45F29440C5F60200A2
:1029B000814205D045F28040C5F60200814271D1C6
:1029C00001F0FC004CF6CD430838CCF6CC43A0FB1C
:1029D0000303A6F17C071809A6F1FC0303EB8005AD
:1029E00000F01F0225660125676605FA02F2A2665D
:1029F000002543F820507A606068431E072B40D8BA
:102A0000714506F144020FDC45F22F47C5F6020777
:102A1000B94219DC45F20847C5F60207B94229D088
:102A200045F21C4722E000BF45F27F47C5F602078A
:102A3000B94213DC45F25847C5F60207B94219D02E
:102A400045F26C4712E000BF45F23047C5F6020779
:102A5000B9420FD045F2444708E000BF45F2804735
:102A6000C5F60207B94205D045F29447C5F60207FC
:102A7000B94239D10121002746F8207001FA03F04C
:102A80005060C4E91B556567C4E90F55C4E9115589
:102A9000C4E91355656584F8355084F834502846E8
:102AA00001B0F0BD01F0F8004AF6AB231038CAF6C9
:102AB000AA23A0FB030340F20F40C4F202004FF030
:102AC000080C1F09814200F1AA05384688BF0CEBAB
:102AD000131040F60003A942C4F2020328BF38468F
:102AE00003F180077AE700BF40F60001C4F202015B
:102AF00001F1FC0601F5A072BCE700000000000037
:102B0000406D7047000000002DE9F04782B00021C1
:102B1000019140F20C0148F2B513C2F20041C1F636
:102B20004E33856D40F26F490A680168C4F20209AC
:102B30002E68A2FB032849452A6815DC9F22C4F2AF
:102B4000020291422CDC5722C4F20202914251DC73
:102B50001022C4F2020291427BD02822C4F2020267
:102B6000914276D040226FE045F22F43C5F6020332
:102B7000994229DC40F2B743C4F20203994245DC92
:102B800040F27042C4F20202914262D040F28842A6
:102B9000C4F2020291425CD040F2A04254E000BF75
:102BA00040F22742C4F2020291423FDCA022C4F26A
:102BB000020291424DD0B822C4F20202914248D0A2
:102BC00040F2104240E000BF45F26B43C5F60203FD
:102BD000994275DC45F23043C5F60203994200F094
:102BE000828045F24443C5F6020399427BD045F208
:102BF000584373E05822C4F20202914229D0702255
:102C0000C4F20202914224D088221DE040F2B8436F
:102C1000C4F2020399421CD045F20843C5F60203F0
:102C2000994260D045F21C4358E000BF40F2284270
:102C3000C4F2020291420CD040F24042C4F20202BD
:102C4000914206D040F25842C4F20202914240F052
:102C50005383C26D082302F01F0240F20F4A9340D3
:102C6000C4F2020A334200F0DE8051454FF0040402
:102C700012DC6F27C4F20207B9426DDC3F27C4F2B1
:102C80000207B94200F39C801027C4F20207B94240
:102C900000F0BD802827B5E0494569DC40F23F4798
:102CA000C4F20207B94200F3938040F21047C4F225
:102CB0000207B94200F0AB8040F22847A2E000BF13
:102CC00045F26C43C5F6020399420CD045F28043AD
:102CD000C5F60203994206D045F29443C5F60203B5
:102CE000994240F009830B68C76D07F01F0704265F
:102CF000BE40164218BF13F0040423D10226BE4082
:102D0000164218BF13F0020442D1FA40120740F1F4
:102D1000F38213F0080200F0EF820A6822F00E023C
:102D20000A60012101FA07F26A60416580F83510F6
:102D3000C16C00294FF0000280F8342040F0D882A6
:102D4000DAE200BF1A046E6034D49A0636D40A68F8
:102D500022F004020A6031E09F27C4F20207B94260
:102D600040DC7027C4F20207B94250D0882749E0FE
:102D700040F29F47C4F20207B9423BDC40F2704781
:102D8000C4F20207B94242D040F288473AE000BF9D
:102D90001A046E6000F1B4829A0600F1B5820A68E6
:102DA00022F00A020A60012180F83510002180F823
:102DB0003410A9E2D90301D4816C98E2016C96E247
:102DC0004027C4F20207B94221D058271AE000BFB9
:102DD00040F24047C4F20207B94218D040F25847C7
:102DE00010E000BFA027C4F20207B9420FD0B827F5
:102DF00008E000BF40F2A047C4F20207B94206D083
:102E000040F2B847C4F20207B94218BF08240F685D
:102E1000274208D00F6827F004070F60AB60436DAE
:102E200043F0010343650123934033426FD0514582
:102E300010DC6F27C4F20207B9421DDC3F27C4F241
:102E40000207B94234DC1027C4F20207B94256D057
:102E500028274FE049451BDC40F23F47C4F20207F8
:102E6000B9422DDC40F21047C4F20207B94246D005
:102E700040F228473EE000BF9F27C4F20207B94254
:102E800028DC7027C4F20207B94238D0882731E025
:102E900040F29F47C4F20207B94223DC40F2704778
:102EA000C4F20207B9422AD040F2884722E000BFAC
:102EB0004027C4F20207B94221D058271AE000BFC8
:102EC00040F24047C4F20207B94218D040F25847D6
:102ED00010E000BFA027C4F20207B9420FD0B82704
:102EE00008E000BF40F2A047C4F20207B94206D092
:102EF00040F2B847C4F20207B94240F007824F6976
:102F00003F0604D5AB60436D43F0020343650423E1
:102F1000934033426FD0514510DC6F27C4F2020753
:102F2000B9421DDC3F27C4F20207B94234DC102746
:102F3000C4F20207B94256D028274FE049451BDCAE
:102F400040F23F47C4F20207B9422DDC40F210477D
:102F5000C4F20207B94246D040F228473EE000BF23
:102F60009F27C4F20207B94228DC7027C4F2020787
:102F7000B94238D0882731E040F29F47C4F20207B7
:102F8000B94223DC40F27047C4F20207B9422AD0AA
:102F900040F2884722E000BF4027C4F20207B9424E
:102FA00021D058271AE000BF40F24047C4F2020780
:102FB000B94218D040F2584710E000BFA027C4F231
:102FC0000207B9420FD0B82708E000BF40F2A0477F
:102FD000C4F20207B94206D040F2B847C4F2020771
:102FE000B94240F09B810F68BF0704D5AB60436DC9
:102FF00043F004034365102303FA02F2324200F067
:10300000828051454FF0080310DC6F27C4F202079D
:10301000B9421DDC3F27C4F20207B94234DC102755
:10302000C4F20207B94256D028274FE049451BDCBD
:1030300040F23F47C4F20207B9422DDC40F210478C
:10304000C4F20207B94246D040F228473EE000BF32
:103050009F27C4F20207B94228DC7027C4F2020796
:10306000B94238D0882731E040F29F47C4F20207C6
:10307000B94223DC40F27047C4F20207B9422AD0B9
:1030800040F2884722E000BF4027C4F20207B9425D
:1030900021D058271AE000BF40F24047C4F202078F
:1030A000B94218D040F2584710E000BFA027C4F240
:1030B0000207B9420FD0B82708E000BF40F2A0478E
:1030C000C4F20207B94206D040F2B847C4F2020780
:1030D000B94218BF04230F681F4214D0AA600A68BF
:1030E00052030A6808D4D20508D40A6822F00802FC
:1030F0000A60016C21B906E0110351D4016C11B1D1
:10310000044688472046C16D01F01F02202101FAC4
:1031100002F3334200F0AF8001681027514511DC03
:103120006F26C4F20206B1421EDC3F26C4F202063C
:10313000B14239DC1026C4F20206B1425BD0282627
:1031400054E000BF49451BDC40F23F46C4F2020692
:10315000B14231DC40F21046C4F20206B1424AD01C
:1031600040F2284642E000BF9F26C4F20206B14268
:103170002CDC7026C4F20206B1423CD0882635E031
:1031800040F29F46C4F20206B14227DC40F270468C
:10319000C4F20206B1422ED040F2884626E000BFBB
:1031A000816C0029ACD1AEE74026C4F20206B142E0
:1031B00021D058261AE000BF40F24046C4F2020671
:1031C000B14218D040F2584610E000BFA026C4F229
:1031D0000206B1420FD0B82608E000BF40F2A04678
:1031E000C4F20206B14206D040F2B846C4F202066A
:1031F000B14218BF02270E683E423CD0AB6090F847
:103200003530042B0B681DD123F016030B604B697E
:1032100023F080034B61036C0BB9836C1BB10B680B
:1032200023F008030B603F219140A960012180F841
:103230003510016D00294FF0000280F8342057D17D
:103240005AE000BF5A030A680CD4D2050ED40A68AB
:1032500022F010020A60012180F83510002180F868
:10326000341003E0110301D4416C00E0C16B11B1D3
:10327000044688472046416D00293DD0416DC9076D
:1032800034D0042180F8351001684FEA98220B6889
:1032900023F001030B60019B0133019393421AD881
:1032A0000B68DB0717D0019B01330193934212D8BF
:1032B0000B68DB070FD0019B0133019393420AD8BF
:1032C0000B68DB0707D0019B01330193934202D8BF
:1032D0000B68DB07DFD10968C9074FF0030108BF9E
:1032E000012180F83510002180F83410C16C19B12B
:1032F00002B0BDE8F047084702B0BDE8F08700BF64
:10330000D90301D4416CF2E7C16BF0E70B680423E9
:10331000934033427FF4FFAD6DE600BF0B686AE671
:103320002DE9F041044600F06BFEFCB140F26F481D
:1033300005462068C4F2020840451BDC9F21C4F208
:103340000201884232DC5721C4F20201884259DC72
:103350001021C4F20201884200F083802821C4F2C7
:103360000201884200F07D80402175E00120BDE827
:10337000F08100BF45F22F41C5F60201884229DCE9
:1033800040F2B741C4F20201884247DC40F270418A
:10339000C4F20201884264D040F28841C4F20201C2
:1033A00088425ED040F2A04156E000BF40F2274183
:1033B000C4F20201884241DCA021C4F20201884229
:1033C0004FD0B821C4F2020188424AD040F21041E5
:1033D00042E000BF45F26B41C5F60201884200F3AE
:1033E000D18045F23041C5F60201884200F0DD800F
:1033F00045F24441C5F60201884200F0D68045F20C
:103400005841CDE05821C4F20201884229D07021F0
:10341000C4F20201884224D088211DE040F2B84164
:10342000C4F2020188421CD045F20841C5F60201EF
:10343000884200F0BA8045F21C41B1E040F22841D8
:10344000C4F2020188420CD040F24041C4F20201B1
:10345000884206D040F25841C4F20201884240F04E
:103460003981022184F83510002184F83410016874
:1034700021F00101016000BF20680168C9070DD07B
:1034800000F0BEFD401B0628F6D320206065032017
:1034900084F835000120BDE8F08100BF48F23F020A
:1034A00004F108060168CFF61062114065694CCE40
:1034B0001143A2691943E3693143266A0D43616AE6
:1034C0002B43042943EA060343EA020303D1D4E968
:1034D0000B652E4333436568A5F12906292E00F2BA
:1034E0003182DFE816F02B002B002B002B002B0085
:1034F0002B002F022F022F022F022F022F022F024A
:103500002F022F022F022F022F022F022F022F0233
:103510002F022B002B002B002B002F022F022F023B
:103520002F022B002B002F022F022F022F022F021F
:103530002F022B002B002B002B0000BF43F4801325
:1035400003600429436923F0070341EA030140F0C3
:10355000DD80D4E90A53002B41EA050100F0D68052
:10356000B2F5005F00F0B880002A40F0C180022D63
:1035700000F0C180012D00F0B580002D00F0BB806F
:10358000C4E000BF45F26C41C5F6020188420CD090
:1035900045F28041C5F60201884206D045F29441C9
:1035A000C5F60201884240F0958004F1080E022120
:1035B00084F83510002184F834100168A3699EE86E
:1035C0000450A2F18005E769B5FA85F566696D09D1
:1035D000402A4FEA853543EA07026FF3101142EAA9
:1035E000060208BF102541EADC0142EA0E02236A06
:1035F000294341EAD20141EA131140F80819C0B247
:10360000CD2148433C2101EA9020E0652046FDF7AA
:103610000BF9E16D012201F01F0102FA01F1416095
:103620002068404500F381809F21C4F20201884256
:1036300014DC5721C4F20201884227DC1021C4F2B5
:103640000201884200F0C7802821C4F202018842AA
:1036500000F0C1804021C4F20201B9E040F22741EC
:10366000C4F20201884221DCA021C4F20201884296
:1036700000F0B180B821C4F20201884200F0AB80B2
:1036800040F21041C4F20201A2E000BF5821C4F28E
:103690000201884200F09F807021C4F2020188423A
:1036A00000F099808821C4F2020191E040F22841A3
:1036B000C4F20201884200F08E8040F24041C4F220
:1036C0000201884200F0878040F25841C4F20201B2
:1036D0007EE000BF4020D9E6032D17D8DFE805F0D3
:1036E0000E0B0E02A3F1C072B2FA82F2520904E08C
:1036F000032D03D30AD1C3F300623AB140206065C1
:10370000012084F83500BDE8F08100BF416120460A
:10371000FDF78AF8E16D3F2201F01F0102FA01F185
:103720008160206840457FF77FAF45F22F41C5F6A5
:103730000201884216DC40F2B741C4F2020188421D
:1037400026DC40F27041C4F20201884243D040F2CC
:103750008841C4F2020188423DD040F2A041C4F247
:10376000020135E045F26B41C5F6020188421FDCDB
:1037700045F23041C5F6020188422CD045F2444161
:10378000C5F60201884226D045F258411EE000BF2E
:1037900040F2B841C4F2020188421CD045F208410F
:1037A000C5F60201884216D045F21C410EE000BF6A
:1037B00045F26C41C5F6020188420CD045F29441B5
:1037C000C5F60201884206D045F28041C5F60201E5
:1037D000884240F0E18045F2574C45F6FC0EC5F6B4
:1037E000020CC5F6020E60450EDC45F22F41C5F60F
:1037F0000201884218DC45F20841C5F60201884200
:1038000028D045F21C4121E045F27F41C5F6020176
:10381000884213DC45F25841C5F60201884219D0AE
:1038200045F26C4112E000BF45F23041C5F602019D
:1038300088420FD045F2444108E000BF45F2944170
:10384000C5F60201884205D045F28041C5F6020165
:10385000884247D100F0FC014CF6CD420839CCF645
:10386000CC42A1FB0212AEF1FC05AEF17C061309BD
:10387000A26803F01F01802A4FF0010205EB8305C7
:10388000256602FA01F26666A26605D10020606034
:10389000286072601EE000BF6368D9B25F1E072F08
:1038A0002960726016D84E1E082E19D260450EF19E
:1038B000440237DC45F22F41C5F60201884249DC5B
:1038C00045F20841C5F60201884259D045F21C4133
:1038D00052E000BF00206067C4E91B005CE000BF4D
:1038E000E06E54E000F0F8014AF6AB221039CAF657
:1038F000AA22A1FB021240F20F43C4F202030825E0
:103900001109984203F1AA060B4688BF05EB121372
:1039100040F60005B042C4F2020505F1800628BF5A
:103920000B46A5E745F27F41C5F6020188421BDC44
:1039300045F25841C5F60201884221D045F26C415A
:103940001AE000BF25F00307742F08BF43F480136B
:10395000F6E500BF45F23041C5F6020188420FD0BE
:1039600045F2444108E000BF45F28041C5F602013E
:10397000884205D045F29441C5F60201884213D130
:103980000EEB83000121E066B140226761670021F0
:103990000160D4E91C01416000206065012184F8C8
:1039A0003510BDE8F08100BF40F60000C4F202000F
:1039B00000F1FC0E00F5A072E2E70000000000003C
:1039C00030B110B590F83440012C03D1022010BD65
:1039D00001207047012480F8344090F83540012CD4
:1039E0002CD1022480F8354000244465D0F800C072
:1039F000DCF8004024F00104CCF800400446FCF759
:103A0000A7FF40F20F4C2068C4F2020C40F26F4155
:103A10006045C4F2020119DC6F23C4F2020398422C
:103A200026DC3F23C4F2020398423DDC1023C4F29B
:103A3000020398425FD0282358E000BF4FF4006192
:103A40004165002180F83410012010BD88421BDC44
:103A500040F23F43C4F2020398422DDC40F210438F
:103A6000C4F20203984246D040F228433EE000BF31
:103A70009F23C4F20203984228DC7023C4F202039D
:103A8000984238D0882331E040F29F43C4F20203C9
:103A9000984223DC40F27043C4F2020398422AD0D9
:103AA00040F2884322E000BF4023C4F20203984260
:103AB00021D058231AE000BF40F24043C4F2020371
:103AC000984218D040F2584310E000BFA023C4F23F
:103AD000020398420FD0B82308E000BF40F2B84379
:103AE000C4F20203984206D040F2A043C4F202039B
:103AF000984240F02F8103680B2262F34403036075
:103B0000226C1AB1082302681A430260884219DC49
:103B10009F22C4F20202904232DC5722C4F2020217
:103B2000904259DC1022C4F20202904200F09680CA
:103B30002822C4F20202904200F090804022C4F297
:103B4000020289E045F22F42C5F6020290422DDCC6
:103B500040F2B742C4F2020290424BDC40F27042A3
:103B6000C4F20202904279D040F28842C4F20202CA
:103B7000904273D040F2A042C4F202026CE000BF57
:103B800040F22742C4F20202904243DCA022C4F277
:103B90000202904262D0B822C4F2020290425DD08A
:103BA00040F21042C4F2020256E000BF45F26B42FE
:103BB000C5F6020290423FDC45F23042C5F60202F1
:103BC00090424BD045F24442C5F60202904245D0A5
:103BD00045F258423EE000BF5822C4F20202904231
:103BE0003CD07022C4F20202904237D08822C4F244
:103BF000020231E040F2B842C4F2020290422DD0FB
:103C000045F20842C5F60202904227D045F21C4216
:103C100020E000BF40F22842C4F2020290421DD0D0
:103C200040F24042C4F20202904217D040F25842A1
:103C3000C4F2020210E000BF45F26C42C5F6020277
:103C400090420BD045F29442C5F60202904205D054
:103C500045F28042C5F60202904274D1236E1A6882
:103C6000D20303D51A6842F480721A60E36E1BB166
:103C70001A6842F480721A60604511DC6F21C4F248
:103C8000020188421EDC3F21C4F20201884235DC79
:103C90001021C4F20201884255D0282150E000BF13
:103CA00088421BDC40F23F41C4F2020188422DDC15
:103CB00040F21041C4F20201884244D040F228414F
:103CC0003EE000BF9F21C4F20201884228DC70213F
:103CD000C4F20201884236D0882131E040F29F418F
:103CE000C4F20201884223DC40F27041C4F20201B6
:103CF000884228D040F2884122E000BF4021C4F22F
:103D0000020188421FD058211AE000BF40F2404112
:103D1000C4F20201884216D040F2584110E000BFC0
:103D2000A021C4F2020188420DD0B82108E000BFF2
:103D300040F2B841C4F20201884204D040F2A041EE
:103D4000C4F202018842016841F0010101600020D3
:103D500010BD00BF0268052363F343020260226CBA
:103D6000002A3FF4D3AE0423CDE60000000000009B
:103D7000B0B5044600F044F940F204010546C2F231
:103D80000041621C097818BF0C4400BF00F038F9EC
:103D9000401BA042FAD3B0BDD0B3B0B5044690F8F2
:103DA000310028B9002084F83000204600F03CF8AB
:103DB00000206060E0602021208284F83310C4E994
:103DC00005002062A08384F8321000F019F9216800
:103DD0000546086940F48030086100BF206800692A
:103DE000C00317D500F00CF9401BB0F5FA7FF5D9E8
:103DF000606BA02140F080006063606B40F01000B9
:103E00006063012084F83110002184F83010B0BDC7
:103E100001207047002020216063606384F8311026
:103E2000002184F83010B0BD44F200010068C4F6EF
:103E30000201884218BF704781B044F2DC40C5F6E9
:103E40000200016841F480310160006800F48030B4
:103E50000090009801B070472DE9F04F83B00F68D3
:103E6000002F00F0C98000F1264642F2004506F11D
:103E7000FF76C5F602050A22A8424FEAB62540F2AF
:103E8000040C08BF092200F120030093082DC5F699
:103E9000000C38BF4FEAB622002400264FF000087D
:103EA00001920AE008F101080F6837FA08F206F1FA
:103EB000020604F1040400F09F80012202FA08FEC9
:103EC00017EA0E09EED0D1F804B003220BF0030775
:103ED000B2407D1E6FEA020A012D11D88268CD68BA
:103EE00002EA0A02B5402A438260CBF30015426819
:103EF00022EA0E0205FA08F52A43426004E000BFF8
:103F0000032F01D103271FE0C2688D6802EA0A026D
:103F1000B540022F42EA0502C26015D16FF00302DC
:103F200004F01C0502EA580B009A0F2352F80BE02C
:103F3000AB400F692EEA0303AF403B4342F80B301E
:103F4000D1F804B00BF00307026807FA06F302EA9F
:103F50000A021BF4403F42EA03020260A2D044F28C
:103F6000F44340F2084EC5F60203C5F6000E0F25D5
:103F70001A6842F002021A601A6802F00202029203
:103F800028F00302029B04F00C0352F80E709D40CF
:103F9000AF43019D05FA03F33B4342F80E304FF067
:103FA000B04EDEF800204B6842EA0907DD0258BF38
:103FB00022EA09079D02CEF80070DCF8002042EAF0
:103FC000090758BF22EA09079D03CCF80070DCF806
:103FD000802042EA090758BF22EA0907DB03CCF830
:103FE0008070DCF87C2042EA090758BF22EA090702
:103FF000CCF87C7056E700BF03B0BDE8F08F00003E
:1040000045F2A020C2F200400068704700000000A6
:1040100040F2040045F2A021C2F20040C2F2004189
:1040200000780A6810440860704700000000000033
:1040300080B5032000F0FCF801F0B6FB44F2184113
:104040004DF68863C5F60201C0F600030A68C2F3A4
:1040500003229A5C096801F00F0102F01F02595C0B
:10406000D04040F21002C2F2004201F01F0120FADB
:1040700001F1116040F20C01C2F2004108600F2012
:1040800000F00AF800281CBF012080BD00F07CF879
:10409000002080BD00000000B0B540F20405C2F26F
:1040A00000452978F1B1044640F20C00C2F200400C
:1040B0004FF47A72B2FBF1F10068B0FBF1F001F05D
:1040C0009BFE0F2C01464FF001000AD8002918BFB3
:1040D000B0BD4FF0FF300022214600F079F80020FB
:1040E0006C60B0BD0120B0BD10B54EF6A05E437847
:1040F000CEF2000E90F800C04EF8083CDEF800301A
:1041000023F00103CEF8003043684EF8043C037BF3
:10411000C27A817A447B120642EA0372837B42EAC6
:10412000C141C27B41EA8441447A41EA4341007A79
:1041300041EA024141EA042141EA400040EA0C0020
:10414000CEF8000010BD00004EF62450CEF2000064
:10415000BFF35F8F016821F48031016000210167A6
:1041600070470000000000004EF6245140F00100AE
:10417000CEF200010867086840F480300860BFF3A1
:104180004F8FBFF36F8F704781B044F2F440C5F694
:104190000200016841F002010160006800F00200C5
:1041A0000090009801B07047002848BF704700F0A9
:1041B0001F01012202FA01F14EF20012C0F34A106F
:1041C000CEF2000242F8201070470000000000000C
:1041D00070B54EF60C5C4FF0FF36CEF2000C00F1DD
:1041E000604505F56445DCF80030C3F3022E8EF01F
:1041F0000703042B28BF0423BEF1030406FA03F3CC
:1042000021EA030100F00F0338BF0024043B00281B
:10421000634406FA04F048BF03F10C05A14022EA0A
:10422000000008430001287070BD0000000000007D
:104230004EF60C514FF6FF03CEF200010A681A4009
:1042400060F30A2242F0806040F0FD700860704721
:10425000B0B544F60C05C5F602052968490729687A
:1042600006D401F00701081A18BF0120B0BD00BF35
:1042700021F0070108432860FFF7C2FE044600BF93
:1042800055F8080C800407D4FFF7BAFE001BB0F500
:104290007A7FF5D90120B0BD0020B0BD000000003C
:1042A00080B501F0F9F944F220414DF68862C5F677
:1042B0000201C0F600020968C1F30211515C01F06D
:1042C0001F01C84080BD000080B544F23041C5F6F2
:1042D000020151F8083C51F8082C51F804CCC2F303
:1042E000051E4A68BEF1000F1AD0C2F3CC0203F0DB
:1042F000030300EE102A9FED3A1AB8EE400A20EEB2
:10430000010A9FED381ADFE803F00323110700BF0D
:1043100051F8302C92060DD49FED331A18E000BFEF
:1043200000218160C0E9001180BD00BF9FED2F1A00
:104330000EE000BF51F8302C49F20003C0F2D03338
:10434000C2F3C10223FA02F201EE102AB8EE411ABA
:104350000A689FED273A6FF35F2202EE102A5FEAA8
:10436000CC7203FE000A03EE10EA0A68B8EE422A95
:10437000C2F34622B8EE433A013230EE020AB7EEFB
:10438000002A81EE031A30EE020A21EE000A01EE45
:10439000102AB8EE411A80EE011ABCEEC11A80ED67
:1043A000001A0A68C2F30642013201EE102AB8EE82
:1043B000411A80EE011ABCEEC11A80ED011A09689B
:1043C000C1F30661013101EE101AB8EE411A80EE18
:1043D000010ABCEEC00A10EE101A816080BD00BF59
:1043E000000000390024744A0024744C20BCBE4BE9
:1043F000000000000000000080B544F2384EC5F611
:10440000020E5EF8103C5EF8101C5EF80C2CC1F336
:10441000053CDEF80410BCF1000F19D0C9089FED6F
:104420003C1AD20601EAE27103F003026FF35F3136
:1044300000EE101AB8EE400ADFE802F00222102265
:104440005EF8381C89060DD49FED331A18E000BFC2
:1044500000218160C0E9001180BD00BF9FED2D1AD1
:104460000EE000BF5EF8381C49F20002C0F2D03204
:10447000C1F3C10122FA01F101EE101AB8EE411A9E
:10448000DEF800109FED253A6FF35F2102EE101A5F
:10449000DEF80010C1F34621B8EE422A013100EEE9
:1044A000032A00EE10CAB7EE003AB8EE400A81EED9
:1044B000000A32EE031A20EE010A01EE101AB8EEDD
:1044C000411A80EE011ABCEEC11A80ED001ADEF826
:1044D0000010C1F30641013101EE101AB8EE411A85
:1044E00080EE011ABCEEC11A80ED011ADEF8001050
:1044F000C1F30661013101EE101AB8EE411A80EEE7
:10450000010ABCEEC00A10EE101A816080BD00BF27
:104510000024744A20BCBE4B0024744C00000039B7
:1045200080B544F2404EC5F6020E5EF8183C5EF8C7
:10453000181C5EF8142CC1F3055CDEF80410BCF105
:10454000000F19D0C9089FED3C1AD20501EAE271AB
:1045500003F003026FF35F3100EE101AB8EE400A69
:10456000DFE802F0022210225EF8401C89060DD41A
:104570009FED331A18E000BF00218160C0E90011EF
:1045800080BD00BF9FED2D1A0EE000BF5EF8401CFD
:1045900049F20002C0F2D032C1F3C10122FA01F1A6
:1045A00001EE101AB8EE411ADEF800109FED253A20
:1045B0006FF35F2102EE101ADEF80010C1F34621FE
:1045C000B8EE422A013100EE032A00EE10CAB7EE1F
:1045D000003AB8EE400A81EE000A32EE031A20EEED
:1045E000010A01EE101AB8EE411A80EE011ABCEE73
:1045F000C11A80ED001ADEF80010C1F30641013146
:1046000001EE101AB8EE411A80EE011ABCEEC11A82
:1046100080ED011ADEF80010C1F30661013101EEF0
:10462000101AB8EE411A80EE010ABCEEC00A10EE74
:10463000101A816080BD00BF0024744A20BCBE4BAC
:104640000024744C0000003910B584B0024641F6D5
:10465000FF7300209B1A70EB01032DDA47F6FF73FE
:104660009B1A70EB010380F2878082F400430B43B6
:1046700000F0F48082F480330B4300F0138182F465
:104680000022114340F0908144F20041C5F602013E
:10469000886DC0F301420020DFE812F0D60004006C
:1046A000620086010868800040F1778101A8FFF769
:1046B00037FF039804B010BD40F2FF739B1A70EBF4
:1046C00001032DDB82F480730B4300F0818082F4C0
:1046D0008062114340F0688144F20041C5F6020156
:1046E000886DC0F34252042A00F2578148F200005C
:1046F000C0F2BB00DFE812F0E600A800EE005801AF
:10470000060000BFC86C0A68520700F040520868F3
:1047100002D5002A00F03281C00500F1F280F9E0F4
:1047200082F400630B4300F07B8082F480521143DB
:1047300040F03A8144F20041C5F60201086DC0F331
:104740000232042A00F2298148F20000C0F2BB00C4
:10475000DFE812F0B8007A00C0002A01060000BFAE
:10476000C86C0A68520700F04052086840F1C780E0
:10477000002A00F00381C2E082F400530B4300F0F2
:104780007B8082F48042114340F00E8144F2004469
:10479000C5F60204A06DC0F30270052800F2FD808A
:1047A000DFE810F00600DE00CC00D800CA00F600FA
:1047B00000F072FF216A4DF68862C0F60002C1F374
:1047C0000211515C01F01F01C84004B010BD00BFD0
:1047D00044F20041C5F60201086D00F00702042A08
:1047E00000F2DB8048F20000C0F2BB00DFE812F00C
:1047F0006A002C007200DC00060000BFC86C0A686A
:10480000520700F04052086802D5002A00F0B68036
:10481000C00540F17F80B2F1805F00F0758079E0E3
:1048200044F20041C5F60201886DC0F30262042A19
:1048300000F2B38048F20000C0F2BB00DFE802F0F3
:1048400042044AB4560000BF0868000140F1A58048
:1048500001A8FFF7D1FD019804B010BD44F200415A
:10486000C5F60201086DC0F301720020DFE802F016
:10487000022A3C9C08689AE044F20040C5F6020017
:10488000016DC1F30241052900F28780DFE801F0E4
:1048900004826A72588E00BF04B0BDE8104000F078
:1048A00023BF00BF44F20040C5F60200C16C00689F
:1048B000C90308D5000170D501A8FFF79DFD039835
:1048C00004B010BD0868800167D501A8FFF7FCFCA3
:1048D00069E000BF086880005FD501A8FFF720FEEF
:1048E000019804B010BD00BF086854E0C86C0A68A5
:1048F000520700F04052086801D5002A3ED0C0059A
:1049000008D5B2F1805F05D140F60010C0F23D003D
:1049100004B010BD0868B2F1005F00F400314FF040
:10492000000004BF47F64000C0F27D10002908BF18
:10493000084604B010BD00BF206802E0206812E005
:10494000006840F60011C005C0F23D0101EAE070C8
:1049500004B010BD206840071FD520680EE000BFDE
:10496000206818E00068800017D501A8FFF7D8FD7F
:1049700019E000BF016849070FD50068C0F3C10006
:1049800049F20001C0F2D03121FA00F004B010BDAC
:1049900020680CE00068000102D4002004B010BDC3
:1049A00001A8FFF729FD029804B010BD006847F682
:1049B00040018003C0F27D1101EAE07004B010BD37
:1049C0002DE9F0470446C07844F22C480007C5F6AC
:1049D000020828D5606E4FEA305103292AD8DFE853
:1049E00001F0030B131B00BFD8F8001041F4003195
:1049F000C8F8001010E000BF04F10800022102F026
:104A0000BBFC064680B906E004F12800022102F052
:104A100047FD064640B9606ED8F8241021F44011D5
:104A20000843C8F8240000266078C00706D1354640
:104A30002FE000BF01266078C007F8D0A06D0428E1
:104A40003ED83546DFE800F004140E0B0B0000BF23
:104A5000D8F80000354640F40030C8F800002F4672
:104A6000C5B90DE004F12800002102F019FD04E0B1
:104A700004F10800002102F07FFC05462F464DB9E5
:104A8000D8F82400A16D20F0070000250843C8F8DD
:104A900024003746607840073AD5D4F8A4004FEA9E
:104AA0007050052818D8DFE800F0031D11232323D8
:104AB000D8F8000040F40030C8F8000018E000BF4B
:104AC0000125012760784007E7D421E004F12800A0
:104AD000002102F0E5FC0AE00125012660780007CC
:104AE0001AD44FE004F10800002102F045FC05460D
:104AF0002E461DB1607800070ED443E0D8F82C0094
:104B0000D4F8A41020F4600000250843C8F82C0055
:104B10003E466078000735D5D4F8A8004FEA3060EB
:104B2000052813D8DFE800F004180C1E1E1E00BF75
:104B3000D8F8000040F40030C8F8000012E000BFD0
:104B400004F12800002102F0ABFC0AE00125012756
:104B5000E07880071AD434E004F10800002102F064
:104B60000BFC05462F461DB1E07880070ED428E0E7
:104B7000D8F82C00D4F8A81020F0E06000250843F5
:104B8000C8F82C003746E07880071AD5E06C4FEA69
:104B90003010032838D8DFE800F009032D0900BFE2
:104BA000D8F8000040F40030C8F800002E464DB997
:104BB000D8F82000E16C20F0300000250843C8F848
:104BC00020003E466078C00639D5E06D4FEA3030AF
:104BD000042847D8DFE800F004221C0A0A0000BFBE
:104BE000D8F8000040F40030C8F800002F463DBB64
:104BF0001CE000BF04F10800022102F0BDFB0546E5
:104C0000002D2E46DED1D3E701250126DAE700BFCD
:104C100004F12800002102F043FC04E004F1080044
:104C2000002102F0A9FB05462F464DB9D8F8240013
:104C3000E16D20F4E04000250843C8F82400374621
:104C40006078800635D5206E4FEA3040052815D8AB
:104C5000DFE800F0041A0E04040400BF2E46DDB99C
:104C60001EE000BF0125012760788006EBD420E01C
:104C700004F12800012102F013FC0AE001250126BD
:104C80006078400619D449E004F10800012102F0DF
:104C900073FB05462E461DB1607840060DD43DE0FD
:104CA000D8F82400216E20F4E02000250843C8F83D
:104CB00024003E466078400630D5D4F8AC004FEA78
:104CC000307005280ED8DFE800F003130703030354
:104CD0002F46ADB918E000BF04F12800012102F011
:104CE000DFFB0AE001250127607800061AD43CE0CA
:104CF00004F10800012102F03FFB05462F461DB1DB
:104D0000607800060ED430E0D8F82C00D4F8AC104F
:104D100020F0E04000250843C8F82C0037466078B2
:104D2000000622D5E06E58B1B0F1005F0CD0B0F1B2
:104D3000805F37D1D8F8000040F40030C8F8000098
:104D40002E469DB908E000BF04F10800012102F0E1
:104D500013FB05462E464DB9D8F82400E16E20F02D
:104D6000405000250843C8F824003E46E078C007BC
:104D70001DD0A06C032855D8DFE800F008024A08CF
:104D8000D8F8000040F40030C8F80000A9467DB90A
:104D9000D8F82000A16C20F0030000250843C8F8D3
:104DA000200004E001250126E078C007E1D1B146EA
:104DB000A078400602D44F4618E000BFD8F8D403CC
:104DC00040F48070C8F8D403FFF71AF9064600BF14
:104DD000D8F8D403C00507D4FFF712F9801B642864
:104DE000F6D90325032701E02F46FDB12078C0073F
:104DF00000F06F80A06F4FEAF00005284ED8DFE882
:104E000000F0035347030303002D2E4654D157E00F
:104E100004F10800022102F0AFFA0546002DA94670
:104E2000C6D1B5E701254FF00109C1E7D8F8441014
:104E3000D4F8B000414011F4407F11D0D8F84410AC
:104E4000D8F8442042F48032C8F84420D8F84420EE
:104E500021F4407122F48032C8F84420C8F844108C
:104E6000B0F5807F40F0D082FFF7CAF8064641F2E5
:104E7000883A0325032700BFD8F84400800700F1D3
:104E8000C182FFF7BDF8801B5045F5D9AEE700BFE2
:104E900004F12800012102F003FB0AE001250126AC
:104EA0002078800719D446E004F10800012102F0BF
:104EB00063FA05462E461DB1207880070DD43AE0EE
:104EC000D8F82800A16F20F0380000250843C8F862
:104ED00028003E46207880072DD5606F05280FD822
:104EE000DFE800F004140804040400BF2F46ADB945
:104EF00018E000BF04F12800012102F0D1FA0AE015
:104F0000012501272078400719D447E004F1080063
:104F1000012102F031FA05462F461DB120784007E5
:104F20000DD43BE0D8F82800616F20F00700002581
:104F30000843C8F828003746207840072ED5D4F813
:104F4000900005280ED8DFE800F0031307030303E1
:104F50002E46ADB918E000BF04F12800012102F08F
:104F60009FFA0AE001250126207880061AD44BE03A
:104F700004F10800012102F0FFF905462E461DB19B
:104F8000207880060ED43FE0D8F82C00D4F890109A
:104F900020F0070000250843C8F82C003E46207882
:104FA000800631D5D4F88C004FEA307005280FD830
:104FB000DFE800F004140804040400BF2F46ADB974
:104FC00018E000BF04F12800022102F069FA0AE0AB
:104FD00001250127207840061AD44BE004F108008F
:104FE000002102F0C9F905462F461DB12078400680
:104FF0000ED43FE0D8F82800D4F88C1020F0E04020
:1050000000250843C8F8280037462078400631D5E7
:10501000D4F898004FEAB02005280FD8DFE800F058
:1050200004140804040400BF2E46ADB918E000BF04
:1050300004F12800022102F033FA0AE001250126DA
:10504000207800061AD44EE004F10800002102F096
:1050500093F905462E461DB1207800060ED442E095
:10506000D8F82C00D4F8981020F4E050002508431C
:10507000C8F82C003E462078000634D5D4F89C00B1
:105080004FEA7030052815D8DFE800F0041A0E0446
:10509000040400BF2F46E5B12068010727D4C106EC
:1050A0003ED4000355D477E004F12800022102F039
:1050B000F7F90AE00125012720680107EFD516E07E
:1050C00004F10800002102F057F90546002D2F4693
:1050D000E2D1D8F82C00D4F89C1020F460400025D0
:1050E0000843C8F82C00374620680107D7D5D4F804
:1050F0008000B0F5805F09D104F12800022102F0A0
:10510000CFF9002818BF0127D4F88000D8F828105C
:1051100021F440510843C8F828002068C106C0D5D2
:10512000D4F89400B0F5807F09D104F12800022161
:1051300002F0B6F9002818BF0127D4F89400D8F877
:105140002C1021F440710843C8F82C00206800039B
:1051500022D5D4F8A000B0F5003F11D0B0F5803FC3
:1051600008D0002844D104F10800002102F004F91D
:1051700005E000BF04F12800022102F091F9054684
:105180002E4655B9D8F82C00D4F8A01020F44030A1
:1051900000250843C8F82C003E46A07840072CD5CF
:1051A000D4F88400B0F5401F0BD0B0F5001F0BD031
:1051B000B0F5801F2AD1D8F8000040F40030C8F8BC
:1051C00000002F46D5B907E004F12800012102F0C4
:1051D00067F905462F468DB9D8F82800D4F8841011
:1051E00020F4401000250843C8F8280005E000BF5F
:1051F00001250126A0784007D2D43746A078C00701
:1052000009D13E462168880015D532E001250127E5
:10521000A078C007F5D0206DB0F5803F10D018BB46
:10522000D8F8000040F40030C8F800002E4685B1E0
:10523000216888001DD460688A0326D465E000BF19
:1052400004F10800022102F097F80546002D2E46D1
:10525000EED1D8F82000216D20F4803000250843DD
:10526000C8F82000CDE700BF01250126216888008D
:10527000E1D504F12800022102F012F9002818BF3C
:105280000126D4E900108A033FD5E26F6FF00103D5
:1052900003EB3223022B0BD34FEA322343B1012B12
:1052A00040F0AA80D8F8003043F40033C8F800304A
:1052B00025B3CA022CD48A0234D44A003CD4CA0F83
:1052C00049D1090251D4C1075AD1810763D441079A
:1052D0006CD4010776D4C10600F18080800607D522
:1052E00004F12800022102F0DBF8002818BF012594
:1052F000002D18BF01252846BDE8F087D8F82830D2
:1053000023F440731A43C8F828203546CA02D2D580
:10531000D8F82420236F22F000421A43C8F8242032
:105320008A02CAD5D8F82420A36E22F080721A43CC
:10533000C8F824204A00C2D558F81C2C22F4004298
:1053400048F81C2CD4F8B42058F81C3C1A4348F8F0
:105350001C2CCA0FB5D0D8F82020636D22F0405223
:105360001A43C8F820200902ADD5D8F82810D4F87F
:10537000882021F440011143C8F82810C107A4D0A7
:1053800004F10800002101F0F7FF002818BF0546CE
:10539000606881079BD504F10800012101F0ECFF52
:1053A000002818BF05466068410792D504F108003F
:1053B000022101F0E1FF002818BF054660680107DF
:1053C0007FF589AF04F12800002102F069F8002878
:1053D00018BF05466068C1067FF580AF04F128005C
:1053E000012102F05DF8002818BF054660688006BC
:1053F0003FF576AF7CE700BF0125CA027FF55BAFC2
:1054000086E700BFD4F8B0004FF6CF7358F81C2CD5
:10541000C0F2FF0300F4407122F47C5203EA10133F
:105420006FF31F30B1F5407F08BF1A43002548F8DD
:105430001C2CD8F844100843C8F84400FFF7BBBC44
:105440002DE9F04381B0002800F0208142F20009EC
:105450000446C5F20029D9F8000000F00F0081428F
:105460000DD9D9F8000020F00F000843C9F800005A
:10547000D9F8000000F00F00884240F00781206852
:1054800044F218464207C5F602060AD52269336877
:1054900003F070039A4204D9336823F070031A436F
:1054A000326002070AD56269736803F070039A429A
:1054B00004D9736823F070031A437260C2060AD5D8
:1054C000A269736803F4E0639A4204D9736823F411
:1054D000E0631A43726082060AD5E269B36803F09A
:1054E00070039A4204D9B36823F070031A43B26080
:1054F00010F002020AD0E368376807F00F07BB42DA
:1055000004D9376827F00F073B433360C3073FD008
:10551000306820F47062D4E901031A433260012834
:1055200056F8182C0AD0032804D002280AD1920376
:105530000BD4ABE0920108D4A8E000BFD20504D49C
:10554000A4E000BF520740F1A180884656F8081C2D
:1055500021F00701084346F8080CFEF751FD054607
:1055600041F2883756F8080C616800F03800B0EB5B
:10557000C10F09D0FEF744FD401BB842F2D9032009
:1055800001B0BDE8F08300BF2068414600F0020290
:1055900052B1E268336803F00F039A4204D23368D1
:1055A00023F00F031A433260D9F8002002F00F02F3
:1055B00091420CD2D9F8002022F00F020A43C9F818
:1055C0000020D9F8002002F00F028A425ED1410784
:1055D0000AD52169326802F07002914204D2326821
:1055E00022F070021143316001070AD561697268C7
:1055F00002F07002914204D2726822F070021143EC
:105600007160C1060AD5A169726802F4E062914234
:1056100004D2726822F4E0621143716080060AD5F8
:10562000E069B16801F07001884204D2B16821F0EC
:1056300070010843B06000F0B7F831684DF6886239
:10564000C0F60002C1F30321515C336803F00F037D
:1056500001F01F01D25C20FA01F102F01F0040F2BC
:105660001002C2F2004221FA00F0106040F208007D
:1056700040F20C02C2F20040C2F200420068116027
:1056800001B0BDE8F043FEF707BD00BF012001B047
:10569000BDE8F0830000000080B500F085F844F21A
:1056A00018414DF68863C5F60201C0F600030A688A
:1056B000C2F303229A5C096801F00F0102F01F0295
:1056C000595C20FA02F201F01F0040F21001C2F210
:1056D000004122FA00F0086040F20C01C2F20041E1
:1056E0000A6080BD0000000080B500F05DF844F263
:1056F000184C4DF68863C5F6020CC0F60003DCF8C2
:105700000020C2F303229A5CDCF8001001F00F01C4
:1057100002F01F02595CD04040F21002C2F2004277
:1057200001F01F0120FA01F1116040F20C02C2F2F7
:1057300000421060DCF80400C0F30210185C00F0B6
:105740001F0021FA00F080BD80B500F02DF844F272
:10575000184C4DF68863C5F6020CC0F60003DCF861
:105760000020C2F303229A5CDCF8001001F00F0164
:1057700002F01F02595CD04040F21002C2F2004217
:1057800001F01F0120FA01F1116040F20C02C2F297
:1057900000421060DCF80400C0F30220185C00F046
:1057A0001F0021FA00F080BD44F20041C5F602015D
:1057B0000869C0F3C200032816D002280ED00028C2
:1057C00032D10868800649F20000C0F2D03058BFDC
:1057D00070470968C1F3C101C840704747F64000EF
:1057E000C0F27D10704700BF8B6A886AD1F82CC068
:1057F0004A6BC0F30510E8B1C2F3CC0203F0030317
:1058000000EE102A9FED2A1AB8EE400A20EE010A97
:105810009FED281ADFE803F0022110210A689206A2
:105820000ED49FED261A18E040F60010C0F23D009D
:10583000704700BF002070479FED1F1A0DE000BFAA
:105840000A6849F20003C0F2D033C2F3C10223FA5E
:1058500002F201EE102AB8EE411A0A6B9FED183AD7
:105860006FF35F2202EE102A5FEACC7203FE000A99
:1058700003EE100A086BB8EE422AC0F34620B8EED9
:10588000433A013030EE020AB7EE002A81EE031AE5
:1058900030EE020A21EE000A01EE100AB8EE411ABB
:1058A00080EE010ABCEEC00A10EE100A704700BF7D
:1058B000000000390024744A20BCBE4B0024744C04
:1058C000000000000000000070B3F0B581B0044695
:1058D000007844F20046C007C5F6020626D12078BB
:1058E00080076AD5306910F03801B06A42D01829B3
:1058F00008BF5FEA80703DD0E0683168002800F0A2
:105900002D8121F0190108433060FEF779FB05462F
:10591000306840074AD4FEF773FB401B0228F7D9D2
:10592000032001B0F0BD00BF01207047306900F0D6
:105930003801B06A102905D018290BD100F00300F6
:10594000022807D130688003C9D560680028C6D115
:10595000AAE000BF61683068002900F03981B1F524
:10596000A02F00F02D81B1F5803F40F0478140F439
:10597000803049E130684007E06802D5002800F037
:105980009380316821F0190108433060FEF738FB3D
:10599000054600BF3068400708D4FEF731FB401BC6
:1059A00002284FF00300F5D901B0F0BD70682169FD
:1059B00020F0FE4040EA016070602078C0061AD5F1
:1059C000306900F03801B06A082907D0182940F082
:1059D000858000F00300012840F080803068C00519
:1059E00002D5E06980285FD1F068216A20F07C5000
:1059F00040EA0160F060207800073FD420788006FC
:105A000056D42078400700F18180656A9DB33069E3
:105A100000F03800182840F01981012DB16A306B70
:105A200042D001F00302A36A9A423DD1C1F30511AD
:105A3000E26A914238D10146226B6FF35F21013A4D
:105A4000914231D1C0F34622616B01398A422BD198
:105A5000C0F30642A16B01398A4225D1C0F306602A
:105A6000E16B013988421FD1706BA16CC0F3CC008F
:105A7000814240F0A581002001B0F0BD606900289E
:105A8000706F59D040F001007067FEF7B9FA054613
:105A9000706F8007B2D4FEF7B3FA401B0228F7D923
:105AA000032001B0F0BD00BF012001B0F0BD00BF78
:105AB000A0690028306871D040F480503060FEF753
:105AC0009FFA0546306880049BD4FEF799FA401B84
:105AD0000228F7D9032001B0F0BD00BFE06900281B
